:100000000C942A000C9447000C9447000C94470071
:100010000C9447000C9447000C9447000C94470044
:100020000C9447000C9447000C9447000C94470034
:100030000C9447000C9447000C9447000C94470024
:100040000C9447000C9447000C9447000C94470014
:100050000C94470011241FBECFE5D4E0DEBFCDBF16
:1000600010E0A0E6B0E0E6E5F7E002C005900D92F2
:10007000AA3BB107D9F710E0AAEBB0E001C01D928E
:10008000AA3BB107E1F70E9475010C94A9030C94F7
:100090000000FC012AE114C0892F807F856085BBA8
:1000A00085B3845085BB822F8A95F1F79295907F16
:1000B000956095BB85B3845085BB822F8A95F1F7F7
:1000C0009191992349F70895982F907F946095BB5B
:1000D00095B3945095BB9AE1292F2A95F1F7829513
:1000E000807F846085BB85B3845085BB9A95F1F78A
:1000F0000895982F907F956095BB95B3945095BBCC
:100100009AE1292F2A95F1F78295807F856085BB3A
:1001100085B3845085BB9A95F1F7089534E035BBDB
:1001200085B3845085BB2AE1822F8A95F1F794E24A
:1001300095BB85B3845085BB822F8A95F1F795BB1B
:1001400085B3845085BB822F8A95F1F784E885BBFF
:1001500085B3845085BB822F8A95F1F735BB85B373
:10016000845085BB822F8A95F1F784EC85BB85B3DB
:10017000845085BB2A95F1F70895282F882309F02C
:100180003DC085E385BB85B3845085BB9AE1892F4B
:100190008A95F1F785E085BB85B3845085BB9A9538
:1001A000F1F72CC055BB85B3845085BB832F8A954E
:1001B000F1F745BB85B3845085BB832F8A95F1F752
:1001C000822F6AE00E949D03905D892F807F856069
:1001D00085BB85B3845085BB832F8A95F1F79295B3
:1001E000907F956095BB85B3845085BB832F8A959E
:1001F000F1F7822F0E949D03282F03C054E03AE1BB
:1002000044E4222379F6089546E09AE135E023E0BC
:1002100048BB892F8A95F1F789B38E3F29F489B3BA
:100220008E3FE9F381E0089589B38D3F29F489B3C6
:100230008D3FE9F384E0089589B38B3F29F489B3B6
:100240008B3FE9F387E0089589B3873F29F489B3A9
:10025000873FE9F383E2089538BB892F8A95F1F748
:1002600089B38E3F29F489B38E3FE9F382E0089584
:1002700089B38D3F29F489B38D3FE9F385E0089573
:1002800089B38B3F29F489B38B3FE9F388E0089564
:1002900089B3873F29F489B3873FE9F380E0089564
:1002A00028BB892F8A95F1F789B38E3F29F489B34A
:1002B0008E3FE9F383E0089589B38D3F29F489B334
:1002C0008D3FE9F386E0089589B38B3F29F489B324
:1002D0008B3FE9F389E0089589B3873F09F098CF10
:1002E00089B3873FE9F38AE208952F923F924F92B4
:1002F0005F926F927F928F929F92AF92BF92CF92B6
:10030000DF92EF92FF920F931F93CF93DF9380EFD3
:100310008ABB8FEF87BB84BB8BBB0E948E000AE138
:1003200064ECD62E54E1C52E44ED442E38EC232E39
:10033000312C20E1A22E27E2B22E84E885BB85B3C2
:10034000845085BB802F8A95F1F714E015BB85B3E7
:10035000845085BB802F8A95F1F780E690E00E945B
:1003600049000E940401582ED5BA85B3845085BB3C
:10037000802F8A95F1F715BB85B3845085BB802FFC
:100380008A95F1F7852D90E00E94BD000E9404013E
:10039000682ED5BA85B3845085BB802F8A95F1F736
:1003A000C5BA85B3845085BB802F8A95F1F7862D19
:1003B00090E00E94BD000E940401782ED5BA85B35A
:1003C000845085BB802F8A95F1F784E285BB85B385
:1003D000845085BB802F8A95F1F7872D90E00E948D
:1003E000BD000E940401882ED5BA85B3845085BB18
:1003F000802F8A95F1F784E385BB85B3845085BB54
:10040000802F8A95F1F7882D90E00E94BD0020E2B0
:100410003EE4C9010197F1F715BB85B3845085BB54
:10042000802F8A95F1F7C5BA85B3845085BB802F9C
:100430008A95F1F7C9010197F1F794E0E92EF12CC3
:1004400084E8982E30C144E0E416F10409F03FC07E
:1004500095BA85B3845085BB802F8A95F1F784E5E2
:1004600085BB85B3845085BB802F8A95F1F781E7E2
:1004700090E00E944900D5BA85B3845085BB802F97
:100480008A95F1F784E485BB85B3845085BB802FC2
:100490008A95F1F78BE790E00E94490088EE93E09F
:1004A000F1013197F1F70197D9F715BB85B3845066
:1004B00085BB802F8A95F1F7C5BA85B3845085BB7B
:1004C000802F8A95F1F7C5010197F1F774C085E097
:1004D000E816F10409F056C0CDE1D0E095BA85B335
:1004E000845085BB802F8A95F1F715BB85B3845066
:1004F00085BB802F8A95F1F785E890E00E9449003E
:10050000D5BA85B3845085BB802F8A95F1F715BB8A
:1005100085B3845085BB802F8A95F1F785E990E0FB
:100520000E944900D5BA85B3845085BB802F8A9537
:10053000F1F745BA85B3845085BB802F8A95F1F7D2
:10054000CE010E94BD0088EE93E0F1013197F1F7F2
:100550000197D9F715BB85B3845085BB802F8A9549
:10056000F1F7C5BA85B3845085BB802F8A95F1F722
:10057000C5010197F1F721979FEFCF3FD90709F008
:10058000ADCF19C084E085BB85B3845085BB9AE1AB
:10059000892F8A95F1F784E185BB85B3845085BBAB
:1005A0009A95F1F780E197E20197F1F782EA90E0FE
:1005B0000E944900FFCF95BA85B3845085BB802F38
:1005C0008A95F1F715BB85B3845085BB802F8A953A
:1005D000F1F780E690E00E9449000894E11CF11CCC
:1005E0000E940401D5BA95B3945095BB902F9A956B
:1005F000F1F715BB95B3945095BB902F9A95F1F7F1
:1006000090E00E94BD000E940401D5BA95B39450B9
:1006100095BB902F9A95F1F7C5BA95B3945095BBB9
:10062000902F9A95F1F790E00E94BD000E9404017E
:10063000D5BA95B3945095BB902F9A95F1F794E263
:1006400095BB95B3945095BB902F9A95F1F790E098
:100650000E94BD000E940401D5BA95B3945095BB89
:10066000902F9A95F1F794E395BB95B3945095BB71
:10067000902F9A95F1F790E00E94BD0080E29EE4F1
:100680000197F1F715BB85B3845085BB802F8A9500
:10069000F1F7C5BA85B3845085BB802F8A95F1F7F1
:1006A000C5010197F1F720E030E0882011F021E04A
:1006B00030E080E090E041E0741611F081E090E0DD
:1006C000282B392B80E091E0591281E090E041E045
:1006D000641291E0892B90E0282B392B232B29F0F1
:1006E00087E0E816F10409F0AECE84E885BB85B357
:1006F000845085BB802F8A95F1F784E585BB85B34F
:10070000845085BB802F8A95F1F781EB90E00E94A1
:10071000490080ED97E00197F1F784E085BB85B350
:10072000845085BB802F8A95F1F7C5BA85B3845074
:1007300085BB802F8A95F1F700CE991B79E004C024
:10074000991F961708F0961B881F7A95C9F7809510
:060750000895F894FFCFAC
:10075600454E544552205448452050494E203A2D86
:100766000057524F4E472050494E0054525920418F
:100776004741494E005741495420333020534543A1
:100786004F4E44530054494D45204C454654203A5B
:100796002D0053595354454D20424C4F434B45442D
:0A07A6000057454C434F4D4500003D
:00000001FF
